:100000000C9462000C948A000C948A000C948A0070
:100010000C948A000C948A000C948A000C948A0038
:100020000C948A000C948A000C948A000C948A0028
:100030000C948A000C948A000C948A000C948A0018
:100040000C941E030C948A000C94AE040C94DD04F2
:100050000C948A000C948A000C948A000C948A00F8
:100060000C948A000C948A000000000024002700F1
:100070002A0000000000250028002B0000000000DE
:1000800023002600290004040404040404040202DA
:100090000202020203030303030301020408102007
:1000A0004080010204081020010204081020000012
:1000B0000007000201000003040600000000000029
:1000C0000000EE0511241FBECFEFD8E0DEBFCDBF8C
:1000D00011E0A0E0B1E0E2E2F0E102C005900D9293
:1000E000A433B107D9F711E0A4E3B1E001C01D9238
:1000F000AB3EB107E1F710E0C4ECD0E004C02297BA
:10010000FE010E94CF06C23CD107C9F70E94A4009D
:100110000C940F080C9400001F93CF93DF93182FBB
:10012000EB0161E00E94A102C130D10519F4812FD9
:1001300061E004C0209721F4812F60E00E94E60274
:10014000DF91CF911F910895DF93CF9300D000D01E
:10015000CDB7DEB70E94C103CE01019660E875E21B
:100160000E946C028DE090E060E070E00E948C00E4
:1001700062E070E080E090E00E949A038DE090E001
:1001800061E070E00E948C0062E070E080E090E04E
:100190000E949A03E7CFFC018BE091E0918380837A
:1001A000828193810E946D070895AF92BF92CF9292
:1001B000DF92FF920F931F93DF93CF9300D0CDB7C1
:1001C000DEB7BC01DC010D900020E9F75D01A81A43
:1001D000B90AC50169837A830E94D306F92E082FD4
:1001E000192F69817A810115110599F3A5010E94E2
:1001F0000608802F9F2D0F900F90CF91DF911F91B8
:100200000F91FF90DF90CF90BF90AF900895CF9364
:10021000DF93EC018BE091E0998388838A819B8155
:100220000E946D07CE010E942F06DF91CF910895A5
:10023000CF93DF93EC018BE091E09983888380E09A
:1002400091E00E94D5009B838A83DF91CF9108952E
:10025000CF93DF93EC01CB012BE031E0398328838E
:100260000E94D5009B838A83DF91CF910895FC0182
:10027000A281B381FD0101900020E9F73197EA1BCB
:10028000FB0BCF010895FC018281938108958F9229
:100290009F92AF92BF92CF92DF92EF92FF920F9315
:1002A0001F93CF93DF93B82EA92E7B014A016901DA
:1002B000082F192FC8010E941801D7011296EC913E
:1002C00012971396FC911397EF0109900020E9F71C
:1002D0002197CE1BDF0BCC16DD0608F4E601F801F2
:1002E000828193810E946D076E010894C11CD11C0C
:1002F000C6010E94D3060097D9F3D80113969C93A8
:100300008E931297F70142815381480D591DBA010E
:10031000AE010E940608D8011296ED91FC91139748
:10032000EC0FFD1F10828B2D9A2DDF91CF911F9125
:100330000F91FF90EF90DF90CF90BF90AF909F9084
:100340008F90089580E0089581E008950F931F93A2
:10035000CF93DF93EB01DC01ED91FC910284F385F7
:10036000E02D09950097A1F0209709F4EC01CE014A
:1003700001960E94D306082F192F85EC91E0B80151
:10038000AE010E948806F801E80FF91F108202C032
:1003900000E010E0C801DF91CF911F910F91089507
:1003A000EF92FF920F931F93DF93CF9300D000D073
:1003B000CDB7DEB77C018E010F5F1F4FC8010E94D1
:1003C0002801D701ED91FC910190F081E02DC7014A
:1003D000B8010995E82EC8010E94CB008E2D0F9020
:1003E0000F900F900F90CF91DF911F910F91FF9081
:1003F000EF900895AF92BF92CF92DF92EF92FF926B
:100400000F931F93DF93CF9300D000D0CDB7DEB70B
:100410005C017B01CB010E944301BC01DC010D901A
:100420000020E9F78D0101501040081B190B85ECE5
:1004300091E0A8010E9432066C0180179107D0F468
:10044000C7010E9437019C018E010F5F1F4FC80139
:10045000B701A6010E944701D501ED91FC910190E1
:10046000F081E02DC501B8010995E82EC8010E9470
:10047000CB0002C0EE24E3948E2D0F900F900F90CE
:100480000F90CF91DF911F910F91FF90EF90DF9030
:10049000CF90BF90AF90089585EC91E00E94FC034F
:1004A0000895CF93DF93C5ECD1E0CE010E944D04B7
:1004B000CE010E94970581E0DF91CF910895FC0164
:1004C00042815381662757FD6095762F85EC91E038
:1004D0000E94180581E00895FC0183E191E0918379
:1004E0008083738362830895833071F0843028F4AD
:1004F0008130A1F0823021F514C08630B1F0873010
:10050000D1F08430E9F404C0809180008F7703C07B
:10051000809180008F7D80938000089584B58F77CF
:1005200002C084B58F7D84BD08958091B0008F771F
:100530008093B00008958091B0008F7D8093B000CB
:100540000895EF92FF92CF93DF9390E0FC01E6567F
:10055000FF4F44918A579F4FFC018491882389F172
:1005600090E0880F991FFC01E859FF4F25913491C5
:10057000D9018E589F4FFC0125913491E22EE7015D
:100580007E01F32EE701662349F49FB7F8948C911E
:10059000409584238C93888184230BC0623059F466
:1005A0009FB7F8948C91242F209582238C93888177
:1005B000842B888305C09FB7F8948C91842B8C93EF
:1005C0009FBFDF91CF91FF90EF9008950F931F93FE
:1005D000DF93CF930F92CDB7DEB7282F30E0F9012C
:1005E000E255FF4F8491F901E656FF4F14912A57C7
:1005F0003F4FF90104910023D9F0882321F069834A
:100600000E9474026981E02FF0E0EE0FFF1FEE58A8
:10061000FF4F85919491DC019FB7F894662321F4F4
:100620008C911095812302C08C91812B8C939FBF5C
:100630000F90CF91DF911F910F9108951F920F920C
:100640000FB60F9211242F933F938F939F93AF93E5
:10065000BF938091380190913901A0913A01B091F6
:100660003B0130913C010196A11DB11D232F2D5F4F
:100670002D3720F02D570196A11DB11D20933C016F
:100680008093380190933901A0933A01B0933B01D4
:100690008091340190913501A0913601B0913701DC
:1006A0000196A11DB11D8093340190933501A09353
:1006B0003601B0933701BF91AF919F918F913F91D8
:1006C0002F910F900FBE0F901F9018958FB7F89431
:1006D000209138013091390140913A0150913B010C
:1006E0008FBFB901CA0108959FB7F89420913401D2
:1006F00030913501409136015091370186B5A89B64
:1007000006C08F3F21F02F5F3F4F4F4F5F4F9FBF7E
:10071000542F432F322F2227280F311D411D511DE9
:1007200082E0220F331F441F551F8A95D1F7B9016C
:10073000CA010895EF92FF920F931F93CF93DF9317
:100740007B018C010E947403EB010FC00E947403B3
:100750006C1B7D0B83E0683E780738F00894E10855
:10076000F10801091109C851DC4FE114F104010538
:10077000110561F7DF91CF911F910F91FF90EF90DD
:100780000895789484B5826084BD84B5816084BD09
:1007900085B5826085BD85B5816085BDEEE6F0E0FA
:1007A000808181608083E1E8F0E010828081826056
:1007B0008083808181608083E0E8F0E080818160D7
:1007C0008083E1EBF0E0808184608083E0EBF0E007
:1007D000808181608083EAE7F0E0808184608083AB
:1007E0008081826080838081816080838081806855
:1007F00080831092C1000895FC0184859585FC01D9
:10080000E05CFF4F208131818E5B9F4FFC01808136
:100810009181281B390B2F733070C9010895FC0199
:1008200084859585FC01E05CFF4F40815181FC018E
:10083000EE5BFF4F208131814217530741F0019059
:10084000F081E02DE80FF91F208130E002C02FEF8A
:100850003FEFC9010895FC0184859585FC01E05CAA
:10086000FF4F40815181FC01EE5BFF4F20813181C0
:100870004217530771F0A081B181A80FB91F2C91C5
:100880008081918101968F7390709183808330E095
:1008900002C02FEF3FEFC9010895FC0181A1882319
:1008A00029F0A489B5898C9186FFFBCF11A2089508
:1008B000FC0126853785D901A05CBF4F8D919C91A5
:1008C00001968F739070D901AE5BBF4F4D915C91D3
:1008D000119784179507D1F3D901A05CBF4F0D90F4
:1008E000BC91A02DA20FB31F6C93A685B785A05C09
:1008F000BF4F11969C938E93A689B7892C9181E066
:1009000090E0078C02C0880F991F0A94E2F7282B09
:100910002C9381E081A30488F589E02D8081806497
:10092000808381E090E00895FB01E05CFF4F20812F
:1009300031812F5F3F4F2F733070DB01AE5BBF4FB4
:100940004D915C9111972417350739F0A081B18141
:10095000A60FB71F8C933183208308951F920F92A7
:100960000FB60F9211242F933F934F935F936F9382
:100970007F938F939F93AF93BF93EF93FF93809158
:10098000C00082FD07C08091C6006DE371E00E9447
:10099000940402C08091C600FF91EF91BF91AF9186
:1009A0009F918F917F916F915F914F913F912F9187
:1009B0000F900FBE0F901F9018951F920F920FB6B9
:1009C0000F9211242F933F938F939F93EF93FF9355
:1009D0002091C1013091C2018091C3019091C40165
:1009E0002817390731F48091C1008F7D8093C100B1
:1009F00014C0E091C301F091C401EF57FE4F208174
:100A00008091C3019091C40101968F73907090936F
:100A1000C4018093C3012093C600FF91EF919F9181
:100A20008F913F912F910F900FBE0F901F901895AF
:100A3000DF92EF92FF920F931F93CF93DF93EC011E
:100A40007A018B01DD24D394403081EE580780E099
:100A5000680780E0780749F4DD24EC89FD8910827D
:100A600060E874E88EE190E00FC0EC89FD8981E0D8
:100A700090E008A002C0880F991F0A94E2F78083D3
:100A800060E079E08DE390E0A80197010E94AB0659
:100A90002150304040405040569547953795279516
:100AA00080E12030380710F0DD20B1F6E889F989BF
:100AB0003083EA89FB89208319A2EE89FF8940816E
:100AC00081E090E09C010C8C02C0220F331F0A943D
:100AD000E2F7422B4083EE89FF8940819C010D8C17
:100AE00002C0220F331F0A94E2F7422B4083EE89A3
:100AF000FF8940819C010E8C02C0220F331F0A9493
:100B0000E2F7422B4083EE89FF8920810F8C02C0DF
:100B1000880F991F0A94E2F7809582238083DF91E2
:100B2000CF911F910F91FF90EF90DF900895CF9399
:100B3000DF93FC0186859785DC01A05CBF4F8E5B4F
:100B40009F4F4D915C911197EC012881398142179B
:100B50005307B9F7A689B7894C9181E090E09C01D1
:100B6000048C02C0220F331F0A94E2F7209524233D
:100B70002C93A689B7894C919C01058C02C0220F49
:100B8000331F0A94E2F7209524232C93A689B78972
:100B90004C919C01068C02C0220F331F0A94E2F78D
:100BA000209524232C93A689B7892C91078C02C009
:100BB000880F991F0A94E2F7809582238C9384858D
:100BC0009585FC01EE5BFF4F20813181805C9F4F5A
:100BD000FC0131832083DF91CF9108951092C801E9
:100BE0001092C70188EE93E0A0E0B0E08093C901C5
:100BF0009093CA01A093CB01B093CC01E7ECF1E054
:100C000087E291E0929382938DE391E095878487C8
:100C100081E891E09787868785EC90E0918B808BC7
:100C200084EC90E0938B828B80EC90E0958B848BAE
:100C300081EC90E0978B868B82EC90E0918F808F97
:100C400086EC90E0938F828F84E0848F83E0858FA1
:100C500087E0868F85E0878F81E080A308950E94DA
:100C60006D070895CF92DF92EF92FF920F931F933B
:100C7000CF93DF936C017B018A01C0E0D0E00FC00D
:100C8000D7016D917D01D601ED91FC910190F0812C
:100C9000E02DC6010995C80FD91F0150104001155C
:100CA000110571F7CE01DF91CF911F910F91FF9048
:100CB000EF90DF90CF900895CF93DF93EC010E94E7
:100CC0006603688779878A879B87E881F981068030
:100CD000F781E02DCE0109959C0197FF15C00E9478
:100CE0006603288539854A855B85621B730B840BF7
:100CF000950B2C813D814E815F81621773078407BC
:100D0000950718F32FEF3FEFC901DF91CF910895B9
:100D1000CF92DF92EF92FF920F931F93CF93DF93C7
:100D20006C01EB017A0100E010E008C0C6010E94EE
:100D30005C0697FD06C089930F5F1F4F0E151F05B8
:100D4000A8F3C801DF91CF911F910F91FF90EF9011
:100D5000DF90CF900895A1E21A2EAA1BBB1BFD01C4
:100D60000DC0AA1FBB1FEE1FFF1FA217B307E4078A
:100D7000F50720F0A21BB30BE40BF50B661F771FE2
:100D8000881F991F1A9469F76095709580959095C2
:100D90009B01AC01BD01CF010895EE0FFF1F05902F
:100DA000F491E02D0994CF93DF938230910510F4F4
:100DB00082E090E0E091E901F091EA0140E050E04A
:100DC00020E030E026C06081718168177907E0F08B
:100DD0006817790781F4828193812115310531F0FB
:100DE000D90113969C938E9312972BC09093EA018E
:100DF0008093E90126C04115510519F06417750764
:100E000018F4AB01E901DF019F0172816381E72FD3
:100E1000F62F3097C1F64115510501F1481B590BCA
:100E20004430510580F412968D919C911397209730
:100E300019F09B838A8304C09093EA018093E901AF
:100E4000FD01329646C0FD01E40FF51F8193919399
:100E50004250504011965C934E933BC02091E70165
:100E60003091E8012115310541F4209103013091C1
:100E700004013093E8012093E701209105013091AE
:100E800006012115310541F42DB73EB7409101010E
:100E900050910201241B350BE091E701F091E8012C
:100EA000E217F307A0F42E1B3F0B2817390778F041
:100EB000AC014E5F5F4F2417350748F04E0F5F1FA0
:100EC0005093E8014093E7018193919302C0E0E0E1
:100ED000F0E0CF01DF91CF910895CF93DF9300979A
:100EE00009F491C0FC013297138212826091E901EA
:100EF0007091EA016115710581F420813181280F1B
:100F0000391F8091E7019091E8018217930799F5C5
:100F1000F093E801E093E70176C0DB0180E090E028
:100F200002C0CD01D901AE17BF0748F412962D912A
:100F30003C91139721153105A1F7CD0121C0B38351
:100F4000A283EF01499159919E01240F351FA217E9
:100F5000B30779F42D913C911197240F351F2E5F23
:100F60003F4F3183208312962D913C911397338309
:100F70002283009729F4F093EA01E093E90143C04A
:100F8000DC011396FC93EE9312974D915D91A40FA3
:100F9000B51FEA17FB0769F420813181240F351F43
:100FA0002E5F3F4FEC0139832883228133813B83BD
:100FB0002A83E0E0F0E002C0FB01BC01DB011296F5
:100FC0008D919C9113970097B9F79B012E5F3F4F2E
:100FD0008D919C911197820F931F4091E701509141
:100FE000E8014817590779F4309729F41092EA017B
:100FF0001092E90102C013821282225030403093D5
:10100000E8012093E701DF91CF910895FB01DC0116
:1010100002C001900D9241505040D8F70895F894C5
:02102000FFCF00
:10102200002000EB01000000000000CB00070100DF
:10103200000000FA01D001A6015F0251024C02A297
:1010420001A4010000000058043206FC032B040F27
:04105200044D040045
:00000001FF
