:100000000C9462000C948A000C948A000C948A0070
:100010000C948A000C948A000C948A000C948A0038
:100020000C948A000C948A000C948A000C948A0028
:100030000C948A000C948A000C948A000C948A0018
:100040000C94DE050C948A000C9421070C94500744
:100050000C948A000C948A000C948A000C948A00F8
:100060000C948A000C948A000000000024002700F1
:100070002A0000000000250028002B0000000000DE
:1000800023002600290004040404040404040202DA
:100090000202020203030303030301020408102007
:1000A0004080010204081020010204081020000012
:1000B0000007000201000003040600000000000029
:1000C0000000610811241FBECFEFD8E0DEBFCDBF16
:1000D00011E0A0E0B1E0EAECF7E102C005900D927A
:1000E000A633B107D9F711E0A6E3B1E001C01D9234
:1000F000AD3EB107E1F710E0C4ECD0E004C02297B8
:10010000FE010E94A009C23CD107C9F70E942B0240
:100110000C94E30B0C9400001F93CF93DF93182FE4
:10012000EB0161E00E943705C130D10519F4812F40
:1001300061E004C0209721F4812F60E00E947C05DB
:1001400081E090E00E94E30B1F93182F60E00E9473
:100150003705812F0E94B40521E030E08130910500
:1001600011F020E030E0C9011F9108951F93CF9353
:10017000DF93182FEB0161E00E943705CE0160E0AC
:1001800071E00E941E09BC01812F0E94AA04DF9128
:10019000CF911F9108951F93182F60E00E9437059B
:1001A000812F0E9489041F9108951F93CF93DF939D
:1001B000182FEB0161E00E943705CE0160E071E08D
:1001C0000E941E09BC01812F0E94AA04DF91CF91D9
:1001D0001F910895CF92DF92EF92FF920F931F939A
:1001E000DF93CF9300D000D0CDB7DEB76B01DC0139
:1001F000ED91FC910480F581E02D60E070E00995BF
:100200007C018E010F5F1F4FC801B7010E94BC0225
:10021000C601B8010E94CB02C8010E945F02C7015B
:100220000E943E0A0F900F900F900F90CF91DF9198
:100230001F910F91FF90EF90DF90CF900895CF9294
:10024000DF92EF92FF920F931F93DF93CF93CDB77F
:10025000DEB72A970FB6F894DEBF0FBECDBF7C0184
:100260008B01CB010E940C036C0186E0C816D104FF
:1002700008F4E2C0C80160E070E00E947703282F14
:10028000C80161E070E02A870E9477038983C80172
:1002900062E070E00E9477038A83C80163E070E047
:1002A0000E9477038B83C80164E070E00E947703AB
:1002B0008C83CE0101960E94A20B2A85009709F03B
:1002C000BBC02230D1F1233030F4222369F0213039
:1002D00009F0B2C014C0243009F45BC02430F0F13E
:1002E000253009F0A9C07AC0C80165E070E00E941D
:1002F0007703992787FD90950E94A40054C0B6E02B
:10030000CB16D10409F498C0C80165E070E02A87D3
:100310000E947703C82EC80166E070E00E94770350
:10032000682F772767FD70958C2D992787FD90950D
:100330000E948C002A852D836CC0C80165E070E0A6
:100340000E9477038091FFFF8D83809100008E8350
:10035000809101008F83809102002DC0B6E0CB1602
:10036000D10409F469C0C80165E070E00E94770318
:10037000C82EC80166E070E00E947703682F7727D7
:1003800067FD70958C2D992787FD90950E94D5006B
:100390003EC0C80165E070E00E947703992787FDA1
:1003A00090950E94CB00FC0180818D8381818E839A
:1003B00082818F83838188871986D701ED91FC9193
:1003C0000280F381E02DC701BE016B5F7F4F09956D
:1003D000C80160E070E046E050E02CC0B6E0CB160B
:1003E000D10451F1C80165E070E00E947703C82E86
:1003F000C80166E070E00E947703682F772767FDE9
:1004000070958C2D992787FD90950E94B60081E00C
:100410008D831E82D701ED91FC910280F381E02D46
:10042000C701BE016B5F7F4F0995C80160E070E0B6
:1004300047E050E00E9480032A960FB6F894DEBF92
:100440000FBECDBFCF91DF911F910F91FF90EF9025
:10045000DF90CF900895CF92DF92EF92FF920F93AB
:100460001F93DF93CF93CDB7DEB728970FB6F894DD
:10047000DEBF0FBECDBF0E9434067E010894E11C92
:10048000F11CC70160E875E20E948104C7010E9467
:1004900074048E010B5F1F4FC80160E071E00E9481
:1004A000BC0268011E2D0F2D812F902FB6010E94D6
:1004B000EA00812F902FB6010E941F01F5CFFC01A9
:1004C0008DE091E091838083828193810E943E0A36
:1004D0000895AF92BF92CF92DF92FF920F931F9336
:1004E000DF93CF9300D0CDB7DEB7BC01DC010D9018
:1004F0000020E9F75D01A81AB90AC50169837A836A
:100500000E94A409F92E082F192F69817A810115FB
:10051000110599F3A5010E94C00B802F9F2D0F900C
:100520000F90CF91DF911F910F91FF90DF90CF90AF
:10053000BF90AF900895CF93DF93EC018DE091E0F1
:10054000998388838A819B810E943E0ACE010E9402
:10055000A208DF91CF910895CF93DF93EC018DE056
:1005600091E09983888381E091E00E9469029B83F6
:100570008A83DF91CF910895CF93DF93EC01CB0174
:100580002DE031E0398328830E9469029B838A83AE
:10059000DF91CF910895CF92DF92EF92FF920F9368
:1005A0001F93CF93DF937C016B01DC0112968C913A
:1005B000129713969C91FC01EF0109900020E9F736
:1005C0002197CE1BDF0BDB011296EC91129713964D
:1005D000FC91DF010D900020E9F78D010E1B1F0B30
:1005E000B8016C0F7D1F0E94D70AF70193838283A5
:1005F000D60112966D917C9113978C0F9D1FA801C7
:100600000E94C90BC701DF91CF911F910F91FF90FD
:10061000EF90DF90CF900895FC01A281B381FD019E
:1006200001900020E9F73197EA1BFB0BCF010895F9
:10063000FC018281938108958F929F92AF92BF9225
:10064000CF92DF92EF92FF920F931F93CF93DF939E
:10065000B82EA92E7B014A016901082F192FC80164
:100660000E94AC02D7011296EC9112971396FC915E
:100670001397EF0109900020E9F72197CE1BDF0BBC
:10068000CC16DD0608F4E601F801828193810E9410
:100690003E0A6E010894C11CD11CC6010E94A40927
:1006A0000097D9F3D80113969C938E931297F70174
:1006B00042815381480D591DBA01AE010E94C00B01
:1006C000D8011296ED91FC911397EC0FFD1F10824B
:1006D0008B2D9A2DDF91CF911F910F91FF90EF906D
:1006E000DF90CF90BF90AF909F908F900895DC01E6
:1006F0001296ED91FC911397E60FF71F80810895F4
:10070000EF92FF920F931F93CF93DF93EC018B0136
:100710002A813B81F90101900020E9F73197E21B22
:10072000F30BE61BF70B7F010894E11CF11CC901D8
:10073000860F971FBF014E175F0708F4BA01600FBD
:10074000711F620F731FA7010E94C90BB701600FD1
:10075000711F8A819B810E94D70A8A839B83CE0165
:10076000DF91CF911F910F91FF90EF90089580E05E
:10077000089581E008950F931F93CF93DF93EB01CA
:10078000DC01ED91FC910284F385E02D0995009741
:10079000A1F0209709F4EC01CE0101960E94A40972
:1007A000082F192F87EC91E0B801AE010E94FB08D9
:1007B000F801E80FF91F108202C000E010E0C80144
:1007C000DF91CF911F910F910895EF92FF920F93B8
:1007D0001F93DF93CF9300D000D0CDB7DEB77C015D
:1007E0008E010F5F1F4FC8010E94BC02D701ED911F
:1007F000FC910190F081E02DC701B8010995E82E28
:10080000C8010E945F028E2D0F900F900F900F90E5
:10081000CF91DF911F910F91FF90EF900895AF92CC
:10082000BF92CF92DF92EF92FF920F931F93DF93CD
:10083000CF9300D000D0CDB7DEB75C017B01CB01F8
:100840000E941803BC01DC010D900020E9F78D0126
:1008500001501040081B190B87EC91E0A8010E9481
:10086000A5086C0180179107D0F4C7010E940C0302
:100870009C018E010F5F1F4FC801B701A6010E94A6
:100880001C03D501ED91FC910190F081E02DC50193
:10089000B8010995E82EC8010E945F0202C0EE244B
:1008A000E3948E2D0F900F900F900F90CF91DF91CA
:1008B0001F910F91FF90EF90DF90CF90BF90AF907E
:1008C000089587EC91E00E946F060895CF93DF931F
:1008D000C7ECD1E0CE010E94C006CE010E940A08FA
:1008E00081E0DF91CF910895FC0142815381662719
:1008F00057FD6095762F87EC91E00E948B0781E091
:100900000895FC0185E191E0918380837383628384
:1009100008958E3008F08E5087709091080192955E
:10092000990F990F907C982B90937C0080917A007E
:10093000806480937A0080917A0086FDFCCF2091BC
:10094000780030917900932F80E030E0282B392B0C
:10095000C90108951F93CF93DF93182FEB0161E036
:100960000E943705209709F44AC0CF3FD10509F40A
:1009700049C0E12FF0E0E255FF4FE491E330C1F0D0
:10098000E43028F4E13051F0E230B1F50CC0E6304B
:1009900019F1E73049F1E43079F514C084B5806885
:1009A00084BDC7BD33C084B5806284BDC8BD2EC0C0
:1009B00080918000806880938000D0938900C093EC
:1009C000880024C080918000806280938000D09352
:1009D0008B00C0938A001AC08091B0008068809319
:1009E000B000C093B30012C08091B00080628093C9
:1009F000B000C093B4000AC0C038D1051CF4812FE8
:100A000060E002C0812F61E00E947C05DF91CF9100
:100A10001F910895833071F0843028F48130A1F063
:100A2000823021F514C08630B1F08730D1F08430A7
:100A3000E9F404C0809180008F7703C0809180002A
:100A40008F7D80938000089584B58F7702C084B530
:100A50008F7D84BD08958091B0008F778093B00022
:100A600008958091B0008F7D8093B0000895EF923B
:100A7000FF92CF93DF9390E0FC01E656FF4F449145
:100A80008A579F4FFC018491882389F190E0880F59
:100A9000991FFC01E859FF4F25913491D9018E58D7
:100AA0009F4FFC0125913491E22EE7017E01F32E48
:100AB000E701662349F49FB7F8948C91409584230D
:100AC0008C93888184230BC0623059F49FB7F894CB
:100AD0008C91242F209582238C938881842B88836A
:100AE00005C09FB7F8948C91842B8C939FBFDF91A6
:100AF000CF91FF90EF9008950F931F93DF93CF93C3
:100B00000F92CDB7DEB7282F30E0F901E255FF4F45
:100B10008491F901E656FF4F14912A573F4FF9018E
:100B200004910023D9F0882321F069830E940A05EB
:100B30006981E02FF0E0EE0FFF1FEE58FF4F859127
:100B40009491DC019FB7F894662321F48C91109561
:100B5000812302C08C91812B8C939FBF0F90CF91EA
:100B6000DF911F910F9108950F931F93282F30E06D
:100B7000F901E255FF4F8491F901E656FF4F0491C8
:100B80002A573F4FF9011491112391F0882311F056
:100B90000E940A05E12FF0E0EE0FFF1FE458FF4F1F
:100BA00085919491DC018C91802321E030E011F457
:100BB00020E030E0C9011F910F9108951F920F921C
:100BC0000FB60F9211242F933F938F939F93AF9360
:100BD000BF9380913A0190913B01A0913C01B0916B
:100BE0003D0130913E010196A11DB11D232F2D5FC6
:100BF0002D3720F02D570196A11DB11D20933E01E8
:100C000080933A0190933B01A0933C01B0933D0146
:100C10008091360190913701A0913801B09139014E
:100C20000196A11DB11D8093360190933701A093C9
:100C30003801B0933901BF91AF919F918F913F914E
:100C40002F910F900FBE0F901F9018958FB7F894AB
:100C500020913A0130913B0140913C0150913D017E
:100C60008FBFB901CA010895789484B5826084BDAC
:100C700084B5816084BD85B5826085BD85B58160A0
:100C800085BDEEE6F0E0808181608083E1E8F0E000
:100C90001082808182608083808181608083E0E82F
:100CA000F0E0808181608083E1EBF0E0808184600E
:100CB0008083E0EBF0E0808181608083EAE7F0E010
:100CC0008081846080838081826080838081816074
:100CD00080838081806880831092C1000895FC0128
:100CE00084859585FC01E05CFF4F208131818E5B1E
:100CF0009F4FFC0180819181281B390B2F7330702D
:100D0000C9010895FC0184859585FC01E05CFF4FD5
:100D100040815181FC01EE5BFF4F20813181421700
:100D2000530741F00190F081E02DE80FF91F208179
:100D300030E002C02FEF3FEFC9010895FC01848528
:100D40009585FC01E05CFF4F40815181FC01EE5B29
:100D5000FF4F208131814217530771F0A081B1818B
:100D6000A80FB91F2C918081918101968F7390708B
:100D70009183808330E002C02FEF3FEFC9010895D7
:100D8000FC0181A1882329F0A489B5898C9186FF73
:100D9000FBCF11A20895FC0126853785D901A05CFF
:100DA000BF4F8D919C9101968F739070D901AE5B6E
:100DB000BF4F4D915C91119784179507D1F3D901DD
:100DC000A05CBF4F0D90BC91A02DA20FB31F6C93E0
:100DD000A685B785A05CBF4F11969C938E93A6897C
:100DE000B7892C9181E090E0078C02C0880F991F91
:100DF0000A94E2F7282B2C9381E081A30488F589DB
:100E0000E02D80818064808381E090E00895FB0183
:100E1000E05CFF4F208131812F5F3F4F2F73307097
:100E2000DB01AE5BBF4F4D915C91119724173507E5
:100E300039F0A081B181A60FB71F8C933183208335
:100E400008951F920F920FB60F9211242F933F9384
:100E50004F935F936F937F938F939F93AF93BF93C2
:100E6000EF93FF938091C00082FD07C08091C60080
:100E70006FE371E00E94070702C08091C600FF91F6
:100E8000EF91BF91AF919F918F917F916F915F9102
:100E90004F913F912F910F900FBE0F901F9018957B
:100EA0001F920F920FB60F9211242F933F938F939F
:100EB0009F93EF93FF932091C3013091C4018091E0
:100EC000C5019091C6012817390731F48091C100FE
:100ED0008F7D8093C10014C0E091C501F091C601DF
:100EE000ED57FE4F20818091C5019091C60101967A
:100EF0008F7390709093C6018093C5012093C600B4
:100F0000FF91EF919F918F913F912F910F900FBE85
:100F10000F901F901895DF92EF92FF920F931F93FF
:100F2000CF93DF93EC017A018B01DD24D394403021
:100F300081EE580780E0680780E0780749F4DD24F7
:100F4000EC89FD89108260E874E88EE190E00FC0C2
:100F5000EC89FD8981E090E008A002C0880F991F0C
:100F60000A94E2F7808360E079E08DE390E0A801E5
:100F700097010E9431092150304040405040569521
:100F800047953795279580E12030380710F0DD2010
:100F9000B1F6E889F9893083EA89FB89208319A2AF
:100FA000EE89FF89408181E090E09C010C8C02C0B9
:100FB000220F331F0A94E2F7422B4083EE89FF8908
:100FC00040819C010D8C02C0220F331F0A94E2F76E
:100FD000422B4083EE89FF8940819C010E8C02C028
:100FE000220F331F0A94E2F7422B4083EE89FF89D8
:100FF00020810F8C02C0880F991F0A94E2F7809518
:1010000082238083DF91CF911F910F91FF90EF900A
:10101000DF900895CF93DF93FC0186859785DC01EF
:10102000A05CBF4F8E5B9F4F4D915C911197EC017F
:101030002881398142175307B9F7A689B7894C919E
:1010400081E090E09C01048C02C0220F331F0A94BF
:10105000E2F7209524232C93A689B7894C919C0113
:10106000058C02C0220F331F0A94E2F72095242337
:101070002C93A689B7894C919C01068C02C0220F43
:10108000331F0A94E2F7209524232C93A689B7896D
:101090002C91078C02C0880F991F0A94E2F7809563
:1010A00082238C9384859585FC01EE5BFF4F208124
:1010B0003181805C9F4FFC0131832083DF91CF9190
:1010C00008951092CA011092C90188EE93E0A0E041
:1010D000B0E08093CB019093CC01A093CD01B0936D
:1010E000CE01E9ECF1E089E291E0929382938FE303
:1010F00091E09587848783E891E09787868785ECE0
:1011000090E0918B808B84EC90E0938B828B80ECD1
:1011100090E0958B848B81EC90E0978B868B82ECB2
:1011200090E0918F808F86EC90E0938F828F84E0A7
:10113000848F83E0858F87E0868F85E0878F81E0CD
:1011400080A308950E943E0A0895CF92DF92EF9205
:10115000FF920F931F93CF93DF936C017B018A0162
:10116000C0E0D0E00FC0D7016D917D01D601ED91B7
:10117000FC910190F081E02DC6010995C80FD91F9F
:10118000015010400115110571F7CE01DF91CF918B
:101190001F910F91FF90EF90DF90CF900895CF9324
:1011A000DF93EC010E942606688779878A879B87F0
:1011B000E881F9810680F781E02DCE0109959C0137
:1011C00097FF15C00E942606288539854A855B85CC
:1011D000621B730B840B950B2C813D814E815F81CB
:1011E000621773078407950718F32FEF3FEFC901C4
:1011F000DF91CF910895CF92DF92EF92FF920F93FC
:101200001F93CF93DF936C01EB017A0100E010E0B4
:1012100008C0C6010E94CF0897FD06C089930F5FE2
:101220001F4F0E151F05A8F3C801DF91CF911F9125
:101230000F91FF90EF90DF90CF90089597FB092ECC
:1012400007260AD077FD04D02ED006D000201AF44D
:10125000709561957F4F0895F6F7909581959F4F12
:101260000895A1E21A2EAA1BBB1BFD010DC0AA1FE7
:10127000BB1FEE1FFF1FA217B307E407F50720F0FF
:10128000A21BB30BE40BF50B661F771F881F991F7A
:101290001A9469F760957095809590959B01AC01C3
:1012A000BD01CF010895AA1BBB1B51E107C0AA1FB6
:1012B000BB1FA617B70710F0A61BB70B881F991FF7
:1012C0005A95A9F780959095BC01CD0108952F926C
:1012D0003F924F925F926F927F928F929F92AF92C6
:1012E000BF92CF92DF92EF92FF920F931F93CF9313
:1012F000DF93CDB7DEB7CA1BDB0B0FB6F894DEBFAA
:101300000FBECDBF09942A88398848885F846E84CF
:101310007D848C849B84AA84B984C884DF80EE8019
:10132000FD800C811B81AA81B981CE0FD11D0FB622
:10133000F894DEBF0FBECDBFED010895EE0FFF1F85
:101340000590F491E02D0994CF93DF9382309105BD
:1013500010F482E090E0E091EB01F091EC0140E0CC
:1013600050E020E030E026C0608171816817790785
:10137000E0F06817790781F48281938121153105A6
:1013800031F0D90113969C938E9312972BC09093B2
:10139000EC018093EB0126C04115510519F064174B
:1013A000750718F4AB01E901DF019F0172816381C8
:1013B000E72FF62F3097C1F64115510501F1481B73
:1013C000590B4430510580F412968D919C911397DE
:1013D000209719F09B838A8304C09093EC0180933B
:1013E000EB01FD01329646C0FD01E40FF51F81932C
:1013F00091934250504011965C934E933BC0209184
:10140000E9013091EA012115310541F420910401EF
:10141000309105013093EA012093E9012091060102
:10142000309107012115310541F42DB73EB74091A8
:10143000020150910301241B350BE091E901F09169
:10144000EA01E217F307A0F42E1B3F0B2817390718
:1014500078F0AC014E5F5F4F2417350748F04E0F10
:101460005F1F5093EA014093E9018193919302C079
:10147000E0E0F0E0CF01DF91CF910895CF93DF93CB
:10148000009709F491C0FC01329713821282609197
:10149000EB017091EC016115710581F420813181BE
:1014A000280F391F8091E9019091EA018217930773
:1014B00099F5F093EA01E093E90176C0DB0180E061
:1014C00090E002C0CD01D901AE17BF0748F41296D3
:1014D0002D913C91139721153105A1F7CD0121C024
:1014E000B383A283EF01499159919E01240F351FC7
:1014F000A217B30779F42D913C911197240F351F52
:101500002E5F3F4F3183208312962D913C9113978C
:1015100033832283009729F4F093EC01E093EB01ED
:1015200043C0DC011396FC93EE9312974D915D91AD
:10153000A40FB51FEA17FB0769F420813181240F3E
:10154000351F2E5F3F4FEC01398328832281338181
:101550003B832A83E0E0F0E002C0FB01BC01DB0139
:1015600012968D919C9113970097B9F79B012E5F6E
:101570003F4F8D919C911197820F931F4091E901EC
:101580005091EA014817590779F4309729F41092DD
:10159000EC011092EB0102C0138212822250304003
:1015A0003093EA012093E901DF91CF910895A0E003
:1015B000B0E0EDEDFAE00C946D098C01CB01011562
:1015C000110529F40E94A409082F192FB5C0D801CC
:1015D00012979801260F371F2A173B0708F4AAC055
:1015E000ED90FC901197E616F706D0F045E0E41672
:1015F000F10408F4A1C0A701445050404617570712
:1016000008F49AC0A70142505040461B570BF901FD
:10161000419351936D937C93CF010E943E0A8CC0FD
:101620005B01AE18BF0848018E0C9F1CE091EB01D6
:10163000F091EC01CC24DD24C0E0D0E041C0E815FD
:10164000F90599F560817181AB014E5F5F4F4A15D5
:101650005B0558F1AB014A195B09CC24DD24689481
:10166000C1F8C40ED51E8280A380E5E0CE16D10459
:1016700048F0F9018282A3825183408311969C93A2
:101680008E9309C0C7010296860F971F11969C93EF
:101690008E93E82DFA2D209719F0FB83EA834CC036
:1016A000F093EC01E093EB0147C040815181C416F7
:1016B000D50608F46A01EF0152814381E52FF42F2A
:1016C000309709F0BCCF4091E9015091EA014815EB
:1016D0005905E9F4C816D906D0F440910601509195
:1016E00007014115510541F44DB75EB76091020104
:1016F00070910301461B570B24173507D8F430931C
:10170000EA012093E90111969C938E9315C00E94E3
:10171000A409C82EE6016E01D92EE601209751F0EA
:101720008C2DB801A7010E94C00BC8010E943E0A7F
:10173000860102C000E010E0C801CDB7DEB7ECE0E2
:101740000C948909FC0188279927E894219120327B
:10175000E9F3293010F02E30C8F32B3241F02D324E
:1017600039F4689404C00E94DB0B820F911D219113
:1017700020532A30C0F31EF4909581959F4F089511
:10178000FB01DC0102C001900D9241505040D8F79E
:1017900008956817790768F4FB01DC01E40FF51F71
:1017A000A40FB51F02C002900E9241505040D8F7CE
:1017B00008950C94C00B7AE0979F902D879F802D01
:0A17C000910D11240895F894FFCF55
:1017CA0000002000ED01000001000000005F029B04
:1017DA0002000000000F04E503BB03740466046101
:1017EA0004B703B90300000000CB06A5086F069EE4
:0617FA00068206C0060095
:00000001FF
